{
  "address": "0x2c8B995398b4fAE0ABDB793C7DD87f227E76306d",
  "abi": [
    {
      "inputs": [
        {
          "internalType": "address",
          "name": "initialOwner",
          "type": "address"
        },
        {
          "internalType": "address",
          "name": "_implementation",
          "type": "address"
        },
        {
          "internalType": "address",
          "name": "_reputationSystem",
          "type": "address"
        }
      ],
      "stateMutability": "nonpayable",
      "type": "constructor"
    },
    {
      "inputs": [],
      "name": "ERC1167FailedCreateClone",
      "type": "error"
    },
    {
      "inputs": [],
      "name": "InvalidImplementation",
      "type": "error"
    },
    {
      "inputs": [],
      "name": "InvalidRange",
      "type": "error"
    },
    {
      "inputs": [],
      "name": "InvalidReputationSystem",
      "type": "error"
    },
    {
      "inputs": [],
      "name": "MarketInitializationFailed",
      "type": "error"
    },
    {
      "inputs": [
        {
          "internalType": "address",
          "name": "owner",
          "type": "address"
        }
      ],
      "name": "OwnableInvalidOwner",
      "type": "error"
    },
    {
      "inputs": [
        {
          "internalType": "address",
          "name": "account",
          "type": "address"
        }
      ],
      "name": "OwnableUnauthorizedAccount",
      "type": "error"
    },
    {
      "inputs": [],
      "name": "RangeOutOfBounds",
      "type": "error"
    },
    {
      "inputs": [],
      "name": "ReentrancyGuardReentrantCall",
      "type": "error"
    },
    {
      "anonymous": false,
      "inputs": [
        {
          "indexed": true,
          "internalType": "address",
          "name": "oldImpl",
          "type": "address"
        },
        {
          "indexed": true,
          "internalType": "address",
          "name": "newImpl",
          "type": "address"
        },
        {
          "indexed": false,
          "internalType": "uint256",
          "name": "timestamp",
          "type": "uint256"
        }
      ],
      "name": "ImplementationUpdated",
      "type": "event"
    },
    {
      "anonymous": false,
      "inputs": [
        {
          "indexed": true,
          "internalType": "uint256",
          "name": "marketId",
          "type": "uint256"
        },
        {
          "indexed": true,
          "internalType": "address",
          "name": "market",
          "type": "address"
        },
        {
          "indexed": false,
          "internalType": "string",
          "name": "question",
          "type": "string"
        },
        {
          "indexed": false,
          "internalType": "uint256",
          "name": "resolutionTime",
          "type": "uint256"
        },
        {
          "indexed": true,
          "internalType": "address",
          "name": "creator",
          "type": "address"
        },
        {
          "indexed": false,
          "internalType": "uint256",
          "name": "timestamp",
          "type": "uint256"
        }
      ],
      "name": "MarketCreated",
      "type": "event"
    },
    {
      "anonymous": false,
      "inputs": [
        {
          "indexed": true,
          "internalType": "address",
          "name": "previousOwner",
          "type": "address"
        },
        {
          "indexed": true,
          "internalType": "address",
          "name": "newOwner",
          "type": "address"
        }
      ],
      "name": "OwnershipTransferred",
      "type": "event"
    },
    {
      "anonymous": false,
      "inputs": [
        {
          "indexed": true,
          "internalType": "address",
          "name": "oldSystem",
          "type": "address"
        },
        {
          "indexed": true,
          "internalType": "address",
          "name": "newSystem",
          "type": "address"
        },
        {
          "indexed": false,
          "internalType": "uint256",
          "name": "timestamp",
          "type": "uint256"
        }
      ],
      "name": "ReputationSystemUpdated",
      "type": "event"
    },
    {
      "inputs": [
        {
          "internalType": "string",
          "name": "question",
          "type": "string"
        },
        {
          "internalType": "uint256",
          "name": "resolutionTime",
          "type": "uint256"
        }
      ],
      "name": "createMarket",
      "outputs": [
        {
          "internalType": "address",
          "name": "market",
          "type": "address"
        }
      ],
      "stateMutability": "nonpayable",
      "type": "function"
    },
    {
      "inputs": [
        {
          "internalType": "uint256",
          "name": "start",
          "type": "uint256"
        },
        {
          "internalType": "uint256",
          "name": "end",
          "type": "uint256"
        }
      ],
      "name": "getMarkets",
      "outputs": [
        {
          "internalType": "address[]",
          "name": "result",
          "type": "address[]"
        }
      ],
      "stateMutability": "view",
      "type": "function"
    },
    {
      "inputs": [],
      "name": "implementation",
      "outputs": [
        {
          "internalType": "address",
          "name": "",
          "type": "address"
        }
      ],
      "stateMutability": "view",
      "type": "function"
    },
    {
      "inputs": [
        {
          "internalType": "address",
          "name": "market",
          "type": "address"
        }
      ],
      "name": "isMarket",
      "outputs": [
        {
          "internalType": "bool",
          "name": "",
          "type": "bool"
        }
      ],
      "stateMutability": "view",
      "type": "function"
    },
    {
      "inputs": [
        {
          "internalType": "uint256",
          "name": "",
          "type": "uint256"
        }
      ],
      "name": "marketById",
      "outputs": [
        {
          "internalType": "address",
          "name": "",
          "type": "address"
        }
      ],
      "stateMutability": "view",
      "type": "function"
    },
    {
      "inputs": [],
      "name": "marketCount",
      "outputs": [
        {
          "internalType": "uint256",
          "name": "",
          "type": "uint256"
        }
      ],
      "stateMutability": "view",
      "type": "function"
    },
    {
      "inputs": [
        {
          "internalType": "address",
          "name": "",
          "type": "address"
        }
      ],
      "name": "marketIds",
      "outputs": [
        {
          "internalType": "uint256",
          "name": "",
          "type": "uint256"
        }
      ],
      "stateMutability": "view",
      "type": "function"
    },
    {
      "inputs": [],
      "name": "owner",
      "outputs": [
        {
          "internalType": "address",
          "name": "",
          "type": "address"
        }
      ],
      "stateMutability": "view",
      "type": "function"
    },
    {
      "inputs": [],
      "name": "renounceOwnership",
      "outputs": [],
      "stateMutability": "nonpayable",
      "type": "function"
    },
    {
      "inputs": [],
      "name": "reputationSystem",
      "outputs": [
        {
          "internalType": "address",
          "name": "",
          "type": "address"
        }
      ],
      "stateMutability": "view",
      "type": "function"
    },
    {
      "inputs": [
        {
          "internalType": "address",
          "name": "_implementation",
          "type": "address"
        }
      ],
      "name": "setImplementation",
      "outputs": [],
      "stateMutability": "nonpayable",
      "type": "function"
    },
    {
      "inputs": [
        {
          "internalType": "address",
          "name": "_reputationSystem",
          "type": "address"
        }
      ],
      "name": "setReputationSystem",
      "outputs": [],
      "stateMutability": "nonpayable",
      "type": "function"
    },
    {
      "inputs": [
        {
          "internalType": "address",
          "name": "newOwner",
          "type": "address"
        }
      ],
      "name": "transferOwnership",
      "outputs": [],
      "stateMutability": "nonpayable",
      "type": "function"
    }
  ],
  "transactionHash": "0xa926141d30bf2c75695210d89aae0d9f8ac3b4a1fcfa24f3de54d50208aefc5f",
  "args": [
    "0xD38de898Df33FEc5E0e4cCe2a810DB284C0Cd820",
    "0xbEd06D82FECe2977500688E38ba866aeBc39cBEA",
    "0x0eB956bECD4342a500931b5e8Ce803a518113838"
  ],
  "numDeployments": 1,
  "solcInputHash": "d030c3f97a86c2bccb187bfde57580a9",
  "bytecode": "0x608060405234801561000f575f80fd5b50604051610b5b380380610b5b83398101604081905261002e91610154565b826001600160a01b03811661005c57604051631e4fbdf760e01b81525f600482015260240160405180910390fd5b610065816100ea565b50600180556001600160a01b0382166100915760405163340aafcd60e11b815260040160405180910390fd5b6001600160a01b0381166100b857604051631568d0b360e01b815260040160405180910390fd5b600280546001600160a01b039384166001600160a01b0319918216179091556003805492909316911617905550610194565b5f80546001600160a01b038381166001600160a01b0319831681178455604051919092169283917f8be0079c531659141344cd1fd0a4f28419497f9722a3daafe3b4186f6b6457e09190a35050565b80516001600160a01b038116811461014f575f80fd5b919050565b5f805f60608486031215610166575f80fd5b61016f84610139565b925061017d60208501610139565b915061018b60408501610139565b90509250925092565b6109ba806101a15f395ff3fe608060405234801561000f575f80fd5b50600436106100cb575f3560e01c8063883c84c111610088578063d784d42611610063578063d784d426146101d4578063e090c76f146101e7578063ec97908214610214578063f2fde38b1461021d575f80fd5b8063883c84c1146101895780638da5cb5b1461019c578063bc37bf55146101ac575f80fd5b806331143cee146100cf5780635c60da1b146100e45780636587eda1146101145780636ec934da14610127578063715018a61461016157806380968d4814610169575b5f80fd5b6100e26100dd366004610762565b610230565b005b6002546100f7906001600160a01b031681565b6040516001600160a01b0390911681526020015b60405180910390f35b6003546100f7906001600160a01b031681565b610151610135366004610762565b6001600160a01b03165f90815260066020526040902054151590565b604051901515815260200161010b565b6100e26102c1565b61017c610177366004610788565b6102d4565b60405161010b91906107a8565b6100f76101973660046107f4565b6103e4565b5f546001600160a01b03166100f7565b6100f76101ba366004610865565b60056020525f90815260409020546001600160a01b031681565b6100e26101e2366004610762565b610586565b6102066101f5366004610762565b60066020525f908152604090205481565b60405190815260200161010b565b61020660045481565b6100e261022b366004610762565b61060c565b61023861064e565b6001600160a01b03811661025f57604051631568d0b360e01b815260040160405180910390fd5b600380546001600160a01b038381166001600160a01b0319831681179093556040519116919082907ee879685b31024fd133fbeb7dbd515b086f657ee0482f3bafda6f8539d7d504906102b59042815260200190565b60405180910390a35050565b6102c961064e565b6102d25f61067a565b565b60608183106102f65760405163561ce9bb60e01b815260040160405180910390fd5b60045482111561031957604051630655dc2560e01b815260040160405180910390fd5b6103238383610890565b67ffffffffffffffff81111561033b5761033b6108a9565b604051908082528060200260200182016040528015610364578160200160208202803683370190505b509050825b828110156103dd5760055f61037f8360016108bd565b815260208101919091526040015f20546001600160a01b0316826103a38684610890565b815181106103b3576103b36108d0565b6001600160a01b0390921660209283029190910190910152806103d5816108e4565b915050610369565b5092915050565b5f6103ed6106c9565b5f60045f81546103fc906108e4565b9182905550600254909150610419906001600160a01b03166106f3565b60035460405163090100cd60e31b81529193506001600160a01b0380851692634808066892610455928a928a928a923392911690600401610924565b5f604051808303815f87803b15801561046c575f80fd5b505af192505050801561047d575060015b61049a576040516392bc453b60e01b815260040160405180910390fd5b5f81815260056020908152604080832080546001600160a01b0319166001600160a01b03878116918217909255845260069092529182902083905560035491516330ad0c8760e01b81523060048201529116906330ad0c87906024015f604051808303815f87803b15801561050d575f80fd5b505af115801561051f573d5f803e3d5ffd5b50505050336001600160a01b0316826001600160a01b0316827f97e52d46208aa8a317eac3c54ca4e23a0f4e3f5cd9577333a8f063c40f97aec78888884260405161056d949392919061095e565b60405180910390a45061057f60018055565b9392505050565b61058e61064e565b6001600160a01b0381166105b55760405163340aafcd60e11b815260040160405180910390fd5b600280546001600160a01b038381166001600160a01b0319831681179093556040519116919082907fbe444e048be48a02d3602a86d2210c4cfd09be329f36642c342d033ef98a5009906102b59042815260200190565b61061461064e565b6001600160a01b03811661064257604051631e4fbdf760e01b81525f60048201526024015b60405180910390fd5b61064b8161067a565b50565b5f546001600160a01b031633146102d25760405163118cdaa760e01b8152336004820152602401610639565b5f80546001600160a01b038381166001600160a01b0319831681178455604051919092169283917f8be0079c531659141344cd1fd0a4f28419497f9722a3daafe3b4186f6b6457e09190a35050565b6002600154036106ec57604051633ee5aeb560e01b815260040160405180910390fd5b6002600155565b5f763d602d80600a3d3981f3363d3d373d3d3d363d730000008260601b60e81c175f526e5af43d82803e903d91602b57fd5bf38260781b17602052603760095ff090506001600160a01b03811661075d576040516330be1a3d60e21b815260040160405180910390fd5b919050565b5f60208284031215610772575f80fd5b81356001600160a01b038116811461057f575f80fd5b5f8060408385031215610799575f80fd5b50508035926020909101359150565b602080825282518282018190525f9190848201906040850190845b818110156107e85783516001600160a01b0316835292840192918401916001016107c3565b50909695505050505050565b5f805f60408486031215610806575f80fd5b833567ffffffffffffffff8082111561081d575f80fd5b818601915086601f830112610830575f80fd5b81358181111561083e575f80fd5b87602082850101111561084f575f80fd5b6020928301989097509590910135949350505050565b5f60208284031215610875575f80fd5b5035919050565b634e487b7160e01b5f52601160045260245ffd5b818103818111156108a3576108a361087c565b92915050565b634e487b7160e01b5f52604160045260245ffd5b808201808211156108a3576108a361087c565b634e487b7160e01b5f52603260045260245ffd5b5f600182016108f5576108f561087c565b5060010190565b81835281816020850137505f828201602090810191909152601f909101601f19169091010190565b608081525f6109376080830187896108fc565b6020830195909552506001600160a01b039283166040820152911660609091015292915050565b606081525f6109716060830186886108fc565b602083019490945250604001529291505056fea2646970667358221220dc9c02525d9cf121c637ae2dfdc2d2ca45785f66271110b1133c5cc631dbe39864736f6c63430008140033",
  "devdoc": {
    "details": "Factory contract for creating and tracking prediction markets",
    "errors": {
      "ERC1167FailedCreateClone()": [
        {
          "details": "A clone instance deployment failed."
        }
      ],
      "OwnableInvalidOwner(address)": [
        {
          "details": "The owner is not a valid owner account. (eg. `address(0)`)"
        }
      ],
      "OwnableUnauthorizedAccount(address)": [
        {
          "details": "The caller account is not authorized to perform an operation."
        }
      ],
      "ReentrancyGuardReentrantCall()": [
        {
          "details": "Unauthorized reentrant call."
        }
      ]
    },
    "kind": "dev",
    "methods": {
      "constructor": {
        "details": "Constructor sets the implementation contract and reputation system"
      },
      "createMarket(string,uint256)": {
        "details": "Creates a new prediction market"
      },
      "getMarkets(uint256,uint256)": {
        "details": "Returns a list of markets within the given range"
      },
      "isMarket(address)": {
        "details": "Checks if an address is a market created by this factory"
      },
      "owner()": {
        "details": "Returns the address of the current owner."
      },
      "renounceOwnership()": {
        "details": "Leaves the contract without owner. It will not be possible to call `onlyOwner` functions. Can only be called by the current owner. NOTE: Renouncing ownership will leave the contract without an owner, thereby disabling any functionality that is only available to the owner."
      },
      "setImplementation(address)": {
        "details": "Updates the implementation contract"
      },
      "setReputationSystem(address)": {
        "details": "Updates the reputation system contract"
      },
      "transferOwnership(address)": {
        "details": "Transfers ownership of the contract to a new account (`newOwner`). Can only be called by the current owner."
      }
    },
    "title": "MarketFactory",
    "version": 1
  },
  "userdoc": {
    "kind": "user",
    "methods": {},
    "version": 1
  },
  "storageLayout": {
    "storage": [
      {
        "astId": 8,
        "contract": "contracts/MarketFactory.sol:MarketFactory",
        "label": "_owner",
        "offset": 0,
        "slot": "0",
        "type": "t_address"
      },
      {
        "astId": 351,
        "contract": "contracts/MarketFactory.sol:MarketFactory",
        "label": "_status",
        "offset": 0,
        "slot": "1",
        "type": "t_uint256"
      },
      {
        "astId": 2293,
        "contract": "contracts/MarketFactory.sol:MarketFactory",
        "label": "implementation",
        "offset": 0,
        "slot": "2",
        "type": "t_address"
      },
      {
        "astId": 2295,
        "contract": "contracts/MarketFactory.sol:MarketFactory",
        "label": "reputationSystem",
        "offset": 0,
        "slot": "3",
        "type": "t_address"
      },
      {
        "astId": 2297,
        "contract": "contracts/MarketFactory.sol:MarketFactory",
        "label": "marketCount",
        "offset": 0,
        "slot": "4",
        "type": "t_uint256"
      },
      {
        "astId": 2301,
        "contract": "contracts/MarketFactory.sol:MarketFactory",
        "label": "marketById",
        "offset": 0,
        "slot": "5",
        "type": "t_mapping(t_uint256,t_address)"
      },
      {
        "astId": 2305,
        "contract": "contracts/MarketFactory.sol:MarketFactory",
        "label": "marketIds",
        "offset": 0,
        "slot": "6",
        "type": "t_mapping(t_address,t_uint256)"
      }
    ],
    "types": {
      "t_address": {
        "encoding": "inplace",
        "label": "address",
        "numberOfBytes": "20"
      },
      "t_mapping(t_address,t_uint256)": {
        "encoding": "mapping",
        "key": "t_address",
        "label": "mapping(address => uint256)",
        "numberOfBytes": "32",
        "value": "t_uint256"
      },
      "t_mapping(t_uint256,t_address)": {
        "encoding": "mapping",
        "key": "t_uint256",
        "label": "mapping(uint256 => address)",
        "numberOfBytes": "32",
        "value": "t_address"
      },
      "t_uint256": {
        "encoding": "inplace",
        "label": "uint256",
        "numberOfBytes": "32"
      }
    }
  }
}