{
  "address": "0xbEd06D82FECe2977500688E38ba866aeBc39cBEA",
  "abi": [
    {
      "inputs": [],
      "name": "ReentrancyGuardReentrantCall",
      "type": "error"
    },
    {
      "anonymous": false,
      "inputs": [
        {
          "indexed": true,
          "internalType": "address",
          "name": "market",
          "type": "address"
        },
        {
          "indexed": false,
          "internalType": "string",
          "name": "question",
          "type": "string"
        },
        {
          "indexed": false,
          "internalType": "uint256",
          "name": "resolutionTime",
          "type": "uint256"
        },
        {
          "indexed": true,
          "internalType": "address",
          "name": "creator",
          "type": "address"
        }
      ],
      "name": "MarketCreated",
      "type": "event"
    },
    {
      "anonymous": false,
      "inputs": [
        {
          "indexed": true,
          "internalType": "address",
          "name": "market",
          "type": "address"
        },
        {
          "indexed": false,
          "internalType": "enum IMarket.MarketOutcome",
          "name": "outcome",
          "type": "uint8"
        },
        {
          "indexed": true,
          "internalType": "address",
          "name": "resolver",
          "type": "address"
        }
      ],
      "name": "MarketResolved",
      "type": "event"
    },
    {
      "anonymous": false,
      "inputs": [
        {
          "indexed": true,
          "internalType": "address",
          "name": "trader",
          "type": "address"
        },
        {
          "indexed": false,
          "internalType": "bool",
          "name": "isYes",
          "type": "bool"
        },
        {
          "indexed": false,
          "internalType": "uint256",
          "name": "amount",
          "type": "uint256"
        },
        {
          "indexed": false,
          "internalType": "uint256",
          "name": "shares",
          "type": "uint256"
        }
      ],
      "name": "Trade",
      "type": "event"
    },
    {
      "inputs": [
        {
          "internalType": "bool",
          "name": "isYes",
          "type": "bool"
        },
        {
          "internalType": "uint256",
          "name": "amount",
          "type": "uint256"
        }
      ],
      "name": "buy",
      "outputs": [
        {
          "internalType": "uint256",
          "name": "",
          "type": "uint256"
        }
      ],
      "stateMutability": "nonpayable",
      "type": "function"
    },
    {
      "inputs": [
        {
          "internalType": "address",
          "name": "user",
          "type": "address"
        }
      ],
      "name": "calculateEffectiveFee",
      "outputs": [
        {
          "internalType": "uint256",
          "name": "",
          "type": "uint256"
        }
      ],
      "stateMutability": "view",
      "type": "function"
    },
    {
      "inputs": [],
      "name": "claim",
      "outputs": [
        {
          "internalType": "uint256",
          "name": "",
          "type": "uint256"
        }
      ],
      "stateMutability": "nonpayable",
      "type": "function"
    },
    {
      "inputs": [],
      "name": "collateralToken",
      "outputs": [
        {
          "internalType": "contract IERC20",
          "name": "",
          "type": "address"
        }
      ],
      "stateMutability": "view",
      "type": "function"
    },
    {
      "inputs": [],
      "name": "creator",
      "outputs": [
        {
          "internalType": "address",
          "name": "",
          "type": "address"
        }
      ],
      "stateMutability": "view",
      "type": "function"
    },
    {
      "inputs": [],
      "name": "getCurrentPrice",
      "outputs": [
        {
          "internalType": "uint256",
          "name": "",
          "type": "uint256"
        }
      ],
      "stateMutability": "view",
      "type": "function"
    },
    {
      "inputs": [],
      "name": "getMarketInfo",
      "outputs": [
        {
          "internalType": "string",
          "name": "_question",
          "type": "string"
        },
        {
          "internalType": "uint256",
          "name": "_resolutionTime",
          "type": "uint256"
        },
        {
          "internalType": "address",
          "name": "_creator",
          "type": "address"
        },
        {
          "internalType": "enum IMarket.MarketStatus",
          "name": "_status",
          "type": "uint8"
        },
        {
          "internalType": "enum IMarket.MarketOutcome",
          "name": "_outcome",
          "type": "uint8"
        },
        {
          "internalType": "uint256",
          "name": "_currentPrice",
          "type": "uint256"
        },
        {
          "internalType": "uint256",
          "name": "_liquidityPool",
          "type": "uint256"
        }
      ],
      "stateMutability": "view",
      "type": "function"
    },
    {
      "inputs": [
        {
          "internalType": "address",
          "name": "user",
          "type": "address"
        }
      ],
      "name": "getUserPosition",
      "outputs": [
        {
          "internalType": "uint256",
          "name": "yesShares",
          "type": "uint256"
        },
        {
          "internalType": "uint256",
          "name": "noShares",
          "type": "uint256"
        },
        {
          "internalType": "bool",
          "name": "claimed",
          "type": "bool"
        }
      ],
      "stateMutability": "view",
      "type": "function"
    },
    {
      "inputs": [
        {
          "internalType": "address",
          "name": "",
          "type": "address"
        }
      ],
      "name": "hasClaimed",
      "outputs": [
        {
          "internalType": "bool",
          "name": "",
          "type": "bool"
        }
      ],
      "stateMutability": "view",
      "type": "function"
    },
    {
      "inputs": [
        {
          "internalType": "string",
          "name": "_question",
          "type": "string"
        },
        {
          "internalType": "uint256",
          "name": "_resolutionTime",
          "type": "uint256"
        },
        {
          "internalType": "address",
          "name": "_creator",
          "type": "address"
        },
        {
          "internalType": "address",
          "name": "_reputationSystem",
          "type": "address"
        }
      ],
      "name": "initialize",
      "outputs": [],
      "stateMutability": "nonpayable",
      "type": "function"
    },
    {
      "inputs": [],
      "name": "liquidityPool",
      "outputs": [
        {
          "internalType": "uint256",
          "name": "",
          "type": "uint256"
        }
      ],
      "stateMutability": "view",
      "type": "function"
    },
    {
      "inputs": [
        {
          "internalType": "address",
          "name": "",
          "type": "address"
        }
      ],
      "name": "noBalances",
      "outputs": [
        {
          "internalType": "uint256",
          "name": "",
          "type": "uint256"
        }
      ],
      "stateMutability": "view",
      "type": "function"
    },
    {
      "inputs": [],
      "name": "outcome",
      "outputs": [
        {
          "internalType": "enum IMarket.MarketOutcome",
          "name": "",
          "type": "uint8"
        }
      ],
      "stateMutability": "view",
      "type": "function"
    },
    {
      "inputs": [],
      "name": "question",
      "outputs": [
        {
          "internalType": "string",
          "name": "",
          "type": "string"
        }
      ],
      "stateMutability": "view",
      "type": "function"
    },
    {
      "inputs": [],
      "name": "reputationSystem",
      "outputs": [
        {
          "internalType": "contract IReputationSystem",
          "name": "",
          "type": "address"
        }
      ],
      "stateMutability": "view",
      "type": "function"
    },
    {
      "inputs": [],
      "name": "resolutionTime",
      "outputs": [
        {
          "internalType": "uint256",
          "name": "",
          "type": "uint256"
        }
      ],
      "stateMutability": "view",
      "type": "function"
    },
    {
      "inputs": [
        {
          "internalType": "enum IMarket.MarketOutcome",
          "name": "_outcome",
          "type": "uint8"
        }
      ],
      "name": "resolve",
      "outputs": [],
      "stateMutability": "nonpayable",
      "type": "function"
    },
    {
      "inputs": [
        {
          "internalType": "bool",
          "name": "isYes",
          "type": "bool"
        },
        {
          "internalType": "uint256",
          "name": "shares",
          "type": "uint256"
        }
      ],
      "name": "sell",
      "outputs": [
        {
          "internalType": "uint256",
          "name": "",
          "type": "uint256"
        }
      ],
      "stateMutability": "nonpayable",
      "type": "function"
    },
    {
      "inputs": [],
      "name": "status",
      "outputs": [
        {
          "internalType": "enum IMarket.MarketStatus",
          "name": "",
          "type": "uint8"
        }
      ],
      "stateMutability": "view",
      "type": "function"
    },
    {
      "inputs": [],
      "name": "totalNoShares",
      "outputs": [
        {
          "internalType": "uint256",
          "name": "",
          "type": "uint256"
        }
      ],
      "stateMutability": "view",
      "type": "function"
    },
    {
      "inputs": [],
      "name": "totalYesShares",
      "outputs": [
        {
          "internalType": "uint256",
          "name": "",
          "type": "uint256"
        }
      ],
      "stateMutability": "view",
      "type": "function"
    },
    {
      "inputs": [
        {
          "internalType": "address",
          "name": "",
          "type": "address"
        }
      ],
      "name": "yesBalances",
      "outputs": [
        {
          "internalType": "uint256",
          "name": "",
          "type": "uint256"
        }
      ],
      "stateMutability": "view",
      "type": "function"
    }
  ],
  "transactionHash": "0xb07b6621243f1d83b4e61b63437b4030d0a78c0a61aaaecea2fcecbb0431c8bf",
  "args": [],
  "numDeployments": 1,
  "solcInputHash": "d030c3f97a86c2bccb187bfde57580a9",
  "bytecode": "0x608060405234801561000f575f80fd5b5060015f55611973806100215f395ff3fe608060405234801561000f575f80fd5b506004361061013d575f3560e01c8063665a11ca116100b4578063cd2013e211610079578063cd2013e21461031c578063d31dbc3e1461033b578063e24c469b14610344578063eb91d37e14610357578063f3e41e901461035f578063f571c5f314610368575f80fd5b8063665a11ca1461029c57806373b2e80e146102a5578063a0270dbc146102d7578063aa0e6bc4146102ea578063b2016bd414610309575f80fd5b80633fad9ae0116101055780633fad9ae0146101ef57806348080668146102045780634e71d92d146102195780635ae01f82146102215780635b7c2dad1461022a5780636587eda114610289575f80fd5b806302d05d3f1461014157806314d67ff314610171578063200d2ed21461019257806323341a05146101b357806327793f87146101ce575b5f80fd5b600354610154906001600160a01b031681565b6040516001600160a01b0390911681526020015b60405180910390f35b61018461017f3660046114b6565b61037b565b604051908152602001610168565b6004546101a690600160a01b900460ff1681565b60405161016891906114f7565b6101bb610451565b6040516101689796959493929190611558565b6004546101e290600160a81b900460ff1681565b60405161016891906115b1565b6101f761053a565b60405161016891906115bf565b6102176102123660046115e5565b6105c6565b005b610184610751565b61018460075481565b61026c6102383660046114b6565b6001600160a01b03165f90815260096020908152604080832054600a835281842054600b9093529220549192909160ff1690565b604080519384526020840192909252151590820152606001610168565b600554610154906001600160a01b031681565b61018460085481565b6102c76102b33660046114b6565b600b6020525f908152604090205460ff1681565b6040519015158152602001610168565b6102176102e53660046116ba565b610a7e565b6101846102f83660046114b6565b600a6020525f908152604090205481565b600454610154906001600160a01b031681565b61018461032a3660046114b6565b60096020525f908152604090205481565b61018460065481565b6101846103523660046116e5565b610cef565b610184611051565b61018460025481565b6101846103763660046116e5565b6110a6565b60055460405163bdb1955160e01b81526001600160a01b0383811660048301525f92839291169063bdb1955190602401602060405180830381865afa1580156103c6573d5f803e3d5ffd5b505050506040513d601f19601f820116820180604052508101906103ea919061170f565b9050670de0b6b3a764000081606461040383600261173a565b61040d9190611751565b610417919061173a565b6104219190611751565b6064610436670de0b6b3a7640000600261173a565b6104409190611751565b61044a9190611770565b9392505050565b6002546003546004546060925f928392839283928392839260019290916001600160a01b039091169060ff600160a01b8204811691600160a81b900416610496611051565b6008548680546104a590611783565b80601f01602080910402602001604051908101604052809291908181526020018280546104d190611783565b801561051c5780601f106104f35761010080835404028352916020019161051c565b820191905f5260205f20905b8154815290600101906020018083116104ff57829003601f168201915b50505050509650965096509650965096509650965090919293949596565b6001805461054790611783565b80601f016020809104026020016040519081016040528092919081815260200182805461057390611783565b80156105be5780601f10610595576101008083540402835291602001916105be565b820191905f5260205f20905b8154815290600101906020018083116105a157829003601f168201915b505050505081565b600180546105d390611783565b15905061061d5760405162461bcd60e51b8152602060048201526013602482015272105b1c9958591e481a5b9a5d1a585b1a5e9959606a1b60448201526064015b60405180910390fd5b42831161066c5760405162461bcd60e51b815260206004820152601760248201527f496e76616c6964207265736f6c7574696f6e2074696d650000000000000000006044820152606401610614565b6001600160a01b0381166106c25760405162461bcd60e51b815260206004820152601960248201527f496e76616c69642072657075746174696f6e2073797374656d000000000000006044820152606401610614565b60016106ce8582611809565b506002839055600380546001600160a01b038481166001600160a01b031992831681179093556004805460ff60a01b19169055600580549185169190921617905560405130907fdb3e9457049e4110613a81c56f3d14a67299652bdd96120abf8ff4352942558f9061074390889088906118c5565b60405180910390a350505050565b5f61075a611422565b6002600454600160a01b900460ff16600281111561077a5761077a6114cf565b146107b65760405162461bcd60e51b815260206004820152600c60248201526b139bdd081c995cdbdb1d995960a21b6044820152606401610614565b335f908152600b602052604090205460ff16156108075760405162461bcd60e51b815260206004820152600f60248201526e105b1c9958591e4818db185a5b5959608a1b6044820152606401610614565b5f806001600454600160a81b900460ff166003811115610829576108296114cf565b03610846575050335f9081526009602052604090205460016108f9565b6002600454600160a81b900460ff166003811115610866576108666114cf565b03610883575050335f908152600a602052604090205460016108f9565b6003600454600160a81b900460ff1660038111156108a3576108a36114cf565b036108f957335f908152600a602090815260408083205460099092528220546108cc91906118e6565b90506007546006546108de91906118e6565b6008546108eb908361173a565b6108f59190611751565b9250505b8115610a6f5780156109b0576005546001600160a01b031663d21c363630336001600454600160a81b900460ff166003811115610938576109386114cf565b6040516001600160e01b031960e087901b1681526001600160a01b0394851660048201529390921660248401521460448201526064016020604051808303815f875af115801561098a573d5f803e3d5ffd5b505050506040513d601f19601f820116820180604052508101906109ae919061170f565b505b335f818152600960209081526040808320839055600a8252808320839055600b90915290819020805460ff1916600117905560048054915163a9059cbb60e01b815290810192909252602482018490526001600160a01b03169063a9059cbb906044016020604051808303815f875af1158015610a2f573d5f803e3d5ffd5b505050506040513d601f19601f82011682018060405250810190610a5391906118f9565b610a6f5760405162461bcd60e51b815260040161061490611914565b509050610a7b60015f55565b90565b600254421015610ac45760405162461bcd60e51b81526020600482015260116024820152704d61726b65743a20546f6f206561726c7960781b6044820152606401610614565b610acc611422565b5f600454600160a01b900460ff166002811115610aeb57610aeb6114cf565b14610b2b5760405162461bcd60e51b815260206004820152601060248201526f105b1c9958591e481c995cdbdb1d995960821b6044820152606401610614565b5f816003811115610b3e57610b3e6114cf565b03610b7d5760405162461bcd60e51b815260206004820152600f60248201526e496e76616c6964206f7574636f6d6560881b6044820152606401610614565b6003546001600160a01b03163314610c6a576005546040516318bab8d960e11b81523360048201525f916001600160a01b03169063317571b290602401602060405180830381865afa158015610bd5573d5f803e3d5ffd5b505050506040513d601f19601f82011682018060405250810190610bf9919061170f565b9050610c0e670de0b6b3a7640000600261173a565b811015610c685760405162461bcd60e51b815260206004820152602260248201527f496e73756666696369656e742072657075746174696f6e20746f207265736f6c604482015261766560f01b6064820152608401610614565b505b60048054600160a11b60ff60a01b1982168117835583929161ffff60a01b191617600160a81b836003811115610ca257610ca26114cf565b0217905550604051339030907f6eac92bd581619721e4b87f544af10f8e67c264bc3db337f6db4651ea1048c7090610cdb9085906115b1565b60405180910390a3610cec60015f55565b50565b5f80600454600160a01b900460ff166002811115610d0f57610d0f6114cf565b14610d525760405162461bcd60e51b81526020600482015260136024820152724d61726b65743a204e6f742074726164696e6760681b6044820152606401610614565b6002544210610d965760405162461bcd60e51b815260206004820152601060248201526f4d61726b65743a20546f6f206c61746560801b6044820152606401610614565b610d9e611422565b5f8211610ded5760405162461bcd60e51b815260206004820152601760248201527f416d6f756e74206d75737420626520706f7369746976650000000000000000006044820152606401610614565b5f670de0b6b3a7640000610e003361037b565b610e0a908561173a565b610e149190611751565b90505f610e218285611770565b90505f8515610e7757610e366006548361144a565b90508060065f828254610e4991906118e6565b9091555050335f9081526009602052604081208054839290610e6c9084906118e6565b90915550610ebf9050565b610e836007548361144a565b90508060075f828254610e9691906118e6565b9091555050335f908152600a602052604081208054839290610eb99084906118e6565b90915550505b8160085f828254610ed091906118e6565b9091555050600480546040516323b872dd60e01b81523392810192909252306024830152604482018790526001600160a01b0316906323b872dd906064016020604051808303815f875af1158015610f2a573d5f803e3d5ffd5b505050506040513d601f19601f82011682018060405250810190610f4e91906118f9565b610f6a5760405162461bcd60e51b815260040161061490611914565b6005546001600160a01b03166372be83383033848a610f87611051565b6040516001600160e01b031960e088901b1681526001600160a01b039586166004820152949093166024850152604484019190915215156064830152608482015260a4015f604051808303815f87803b158015610fe2575f80fd5b505af1158015610ff4573d5f803e3d5ffd5b5050604080518915158152602081018990529081018490523392507ff6462a0afa0880720a9b8317f39324757851bd340a51fe6fb4e94374975358e091506060015b60405180910390a29250505061104b60015f55565b92915050565b5f8060075460065461106391906118e6565b9050805f036110855761107f6002670de0b6b3a7640000611751565b91505090565b80670de0b6b3a764000060065461109c919061173a565b61107f9190611751565b5f80600454600160a01b900460ff1660028111156110c6576110c66114cf565b146111095760405162461bcd60e51b81526020600482015260136024820152724d61726b65743a204e6f742074726164696e6760681b6044820152606401610614565b600254421061114d5760405162461bcd60e51b815260206004820152601060248201526f4d61726b65743a20546f6f206c61746560801b6044820152606401610614565b611155611422565b5f82116111a45760405162461bcd60e51b815260206004820152601760248201527f536861726573206d75737420626520706f7369746976650000000000000000006044820152606401610614565b5f831561126157335f908152600960205260409020548311156112095760405162461bcd60e51b815260206004820152601760248201527f496e73756666696369656e7420796573207368617265730000000000000000006044820152606401610614565b6112208360065461121a9190611770565b8461144a565b90508260065f8282546112339190611770565b9091555050335f9081526009602052604081208054859290611256908490611770565b909155506113059050565b335f908152600a60205260409020548311156112b85760405162461bcd60e51b8152602060048201526016602482015275496e73756666696369656e74206e6f2073686172657360501b6044820152606401610614565b6112c98360075461121a9190611770565b90508260075f8282546112dc9190611770565b9091555050335f908152600a6020526040812080548592906112ff908490611770565b90915550505b5f670de0b6b3a76400006113183361037b565b611322908461173a565b61132c9190611751565b90505f6113398284611770565b90508060085f82825461134c9190611770565b90915550506004805460405163a9059cbb60e01b81523392810192909252602482018390526001600160a01b03169063a9059cbb906044016020604051808303815f875af11580156113a0573d5f803e3d5ffd5b505050506040513d601f19601f820116820180604052508101906113c491906118f9565b6113e05760405162461bcd60e51b815260040161061490611914565b6040805187151581526020810183905290810186905233907ff6462a0afa0880720a9b8317f39324757851bd340a51fe6fb4e94374975358e090606001611036565b60025f540361144457604051633ee5aeb560e01b815260040160405180910390fd5b60025f55565b5f8061145683856118e6565b905061146b670de0b6b3a7640000600261173a565b611475858061173a565b61147f838061173a565b6114899190611770565b6114939190611751565b949350505050565b80356001600160a01b03811681146114b1575f80fd5b919050565b5f602082840312156114c6575f80fd5b61044a8261149b565b634e487b7160e01b5f52602160045260245ffd5b600381106114f3576114f36114cf565b9052565b6020810161104b82846114e3565b5f81518084525f5b818110156115295760208185018101518683018201520161150d565b505f602082860101526020601f19601f83011685010191505092915050565b600481106114f3576114f36114cf565b60e081525f61156a60e083018a611505565b602083018990526001600160a01b0388166040840152905061158f60608301876114e3565b61159c6080830186611548565b60a082019390935260c0015295945050505050565b6020810161104b8284611548565b602081525f61044a6020830184611505565b634e487b7160e01b5f52604160045260245ffd5b5f805f80608085870312156115f8575f80fd5b843567ffffffffffffffff8082111561160f575f80fd5b818701915087601f830112611622575f80fd5b813581811115611634576116346115d1565b604051601f8201601f19908116603f0116810190838211818310171561165c5761165c6115d1565b816040528281528a6020848701011115611674575f80fd5b826020860160208301375f602084830101528098505050505050602085013592506116a16040860161149b565b91506116af6060860161149b565b905092959194509250565b5f602082840312156116ca575f80fd5b81356004811061044a575f80fd5b8015158114610cec575f80fd5b5f80604083850312156116f6575f80fd5b8235611701816116d8565b946020939093013593505050565b5f6020828403121561171f575f80fd5b5051919050565b634e487b7160e01b5f52601160045260245ffd5b808202811582820484141761104b5761104b611726565b5f8261176b57634e487b7160e01b5f52601260045260245ffd5b500490565b8181038181111561104b5761104b611726565b600181811c9082168061179757607f821691505b6020821081036117b557634e487b7160e01b5f52602260045260245ffd5b50919050565b601f821115611804575f81815260208120601f850160051c810160208610156117e15750805b601f850160051c820191505b81811015611800578281556001016117ed565b5050505b505050565b815167ffffffffffffffff811115611823576118236115d1565b611837816118318454611783565b846117bb565b602080601f83116001811461186a575f84156118535750858301515b5f19600386901b1c1916600185901b178555611800565b5f85815260208120601f198616915b8281101561189857888601518255948401946001909101908401611879565b50858210156118b557878501515f19600388901b60f8161c191681555b5050505050600190811b01905550565b604081525f6118d76040830185611505565b90508260208301529392505050565b8082018082111561104b5761104b611726565b5f60208284031215611909575f80fd5b815161044a816116d8565b6020808252600f908201526e151c985b9cd9995c8819985a5b1959608a1b60408201526060019056fea26469706673582212200cc18193c9453436846625914fa649f0f0e109655a1546221326fd27c4443b8a64736f6c63430008140033",
  "devdoc": {
    "details": "Implementation of a binary prediction market with reputation system",
    "errors": {
      "ReentrancyGuardReentrantCall()": [
        {
          "details": "Unauthorized reentrant call."
        }
      ]
    },
    "events": {
      "MarketCreated(address,string,uint256,address)": {
        "details": "Emitted when market is created"
      },
      "MarketResolved(address,uint8,address)": {
        "details": "Emitted when market is resolved"
      },
      "Trade(address,bool,uint256,uint256)": {
        "details": "Emitted when a trade occurs"
      }
    },
    "kind": "dev",
    "methods": {
      "buy(bool,uint256)": {
        "details": "Buys outcome tokens"
      },
      "calculateEffectiveFee(address)": {
        "details": "Calculates effective fee rate after reputation discount"
      },
      "claim()": {
        "details": "Claims winnings after market resolution"
      },
      "getCurrentPrice()": {
        "details": "Get current price of YES outcome"
      },
      "getMarketInfo()": {
        "details": "View functions for market information"
      },
      "getUserPosition(address)": {
        "details": "View function for user position"
      },
      "initialize(string,uint256,address,address)": {
        "details": "Initializes the market with given parameters"
      },
      "resolve(uint8)": {
        "details": "Resolves the market with final outcome"
      },
      "sell(bool,uint256)": {
        "details": "Sells outcome tokens"
      }
    },
    "title": "Market",
    "version": 1
  },
  "userdoc": {
    "kind": "user",
    "methods": {},
    "version": 1
  },
  "storageLayout": {
    "storage": [
      {
        "astId": 351,
        "contract": "contracts/Market.sol:Market",
        "label": "_status",
        "offset": 0,
        "slot": "0",
        "type": "t_uint256"
      },
      {
        "astId": 1502,
        "contract": "contracts/Market.sol:Market",
        "label": "question",
        "offset": 0,
        "slot": "1",
        "type": "t_string_storage"
      },
      {
        "astId": 1504,
        "contract": "contracts/Market.sol:Market",
        "label": "resolutionTime",
        "offset": 0,
        "slot": "2",
        "type": "t_uint256"
      },
      {
        "astId": 1506,
        "contract": "contracts/Market.sol:Market",
        "label": "creator",
        "offset": 0,
        "slot": "3",
        "type": "t_address"
      },
      {
        "astId": 1509,
        "contract": "contracts/Market.sol:Market",
        "label": "collateralToken",
        "offset": 0,
        "slot": "4",
        "type": "t_contract(IERC20)310"
      },
      {
        "astId": 1512,
        "contract": "contracts/Market.sol:Market",
        "label": "status",
        "offset": 20,
        "slot": "4",
        "type": "t_enum(MarketStatus)3277"
      },
      {
        "astId": 1515,
        "contract": "contracts/Market.sol:Market",
        "label": "outcome",
        "offset": 21,
        "slot": "4",
        "type": "t_enum(MarketOutcome)3272"
      },
      {
        "astId": 1518,
        "contract": "contracts/Market.sol:Market",
        "label": "reputationSystem",
        "offset": 0,
        "slot": "5",
        "type": "t_contract(IReputationSystem)3450"
      },
      {
        "astId": 1520,
        "contract": "contracts/Market.sol:Market",
        "label": "totalYesShares",
        "offset": 0,
        "slot": "6",
        "type": "t_uint256"
      },
      {
        "astId": 1522,
        "contract": "contracts/Market.sol:Market",
        "label": "totalNoShares",
        "offset": 0,
        "slot": "7",
        "type": "t_uint256"
      },
      {
        "astId": 1524,
        "contract": "contracts/Market.sol:Market",
        "label": "liquidityPool",
        "offset": 0,
        "slot": "8",
        "type": "t_uint256"
      },
      {
        "astId": 1528,
        "contract": "contracts/Market.sol:Market",
        "label": "yesBalances",
        "offset": 0,
        "slot": "9",
        "type": "t_mapping(t_address,t_uint256)"
      },
      {
        "astId": 1532,
        "contract": "contracts/Market.sol:Market",
        "label": "noBalances",
        "offset": 0,
        "slot": "10",
        "type": "t_mapping(t_address,t_uint256)"
      },
      {
        "astId": 1536,
        "contract": "contracts/Market.sol:Market",
        "label": "hasClaimed",
        "offset": 0,
        "slot": "11",
        "type": "t_mapping(t_address,t_bool)"
      }
    ],
    "types": {
      "t_address": {
        "encoding": "inplace",
        "label": "address",
        "numberOfBytes": "20"
      },
      "t_bool": {
        "encoding": "inplace",
        "label": "bool",
        "numberOfBytes": "1"
      },
      "t_contract(IERC20)310": {
        "encoding": "inplace",
        "label": "contract IERC20",
        "numberOfBytes": "20"
      },
      "t_contract(IReputationSystem)3450": {
        "encoding": "inplace",
        "label": "contract IReputationSystem",
        "numberOfBytes": "20"
      },
      "t_enum(MarketOutcome)3272": {
        "encoding": "inplace",
        "label": "enum IMarket.MarketOutcome",
        "numberOfBytes": "1"
      },
      "t_enum(MarketStatus)3277": {
        "encoding": "inplace",
        "label": "enum IMarket.MarketStatus",
        "numberOfBytes": "1"
      },
      "t_mapping(t_address,t_bool)": {
        "encoding": "mapping",
        "key": "t_address",
        "label": "mapping(address => bool)",
        "numberOfBytes": "32",
        "value": "t_bool"
      },
      "t_mapping(t_address,t_uint256)": {
        "encoding": "mapping",
        "key": "t_address",
        "label": "mapping(address => uint256)",
        "numberOfBytes": "32",
        "value": "t_uint256"
      },
      "t_string_storage": {
        "encoding": "bytes",
        "label": "string",
        "numberOfBytes": "32"
      },
      "t_uint256": {
        "encoding": "inplace",
        "label": "uint256",
        "numberOfBytes": "32"
      }
    }
  }
}