{
  "address": "0x0eB956bECD4342a500931b5e8Ce803a518113838",
  "abi": [
    {
      "inputs": [
        {
          "internalType": "address",
          "name": "initialOwner",
          "type": "address"
        }
      ],
      "stateMutability": "nonpayable",
      "type": "constructor"
    },
    {
      "inputs": [
        {
          "internalType": "address",
          "name": "owner",
          "type": "address"
        }
      ],
      "name": "OwnableInvalidOwner",
      "type": "error"
    },
    {
      "inputs": [
        {
          "internalType": "address",
          "name": "account",
          "type": "address"
        }
      ],
      "name": "OwnableUnauthorizedAccount",
      "type": "error"
    },
    {
      "inputs": [],
      "name": "ReentrancyGuardReentrantCall",
      "type": "error"
    },
    {
      "anonymous": false,
      "inputs": [
        {
          "indexed": true,
          "internalType": "address",
          "name": "market",
          "type": "address"
        },
        {
          "indexed": true,
          "internalType": "address",
          "name": "user",
          "type": "address"
        },
        {
          "indexed": false,
          "internalType": "uint256",
          "name": "stake",
          "type": "uint256"
        },
        {
          "indexed": false,
          "internalType": "bool",
          "name": "isYes",
          "type": "bool"
        },
        {
          "indexed": false,
          "internalType": "uint256",
          "name": "entryPrice",
          "type": "uint256"
        }
      ],
      "name": "MarketRecorded",
      "type": "event"
    },
    {
      "anonymous": false,
      "inputs": [
        {
          "indexed": true,
          "internalType": "address",
          "name": "previousOwner",
          "type": "address"
        },
        {
          "indexed": true,
          "internalType": "address",
          "name": "newOwner",
          "type": "address"
        }
      ],
      "name": "OwnershipTransferred",
      "type": "event"
    },
    {
      "anonymous": false,
      "inputs": [
        {
          "indexed": true,
          "internalType": "address",
          "name": "user",
          "type": "address"
        },
        {
          "indexed": false,
          "internalType": "uint256",
          "name": "oldReputation",
          "type": "uint256"
        },
        {
          "indexed": false,
          "internalType": "uint256",
          "name": "newReputation",
          "type": "uint256"
        },
        {
          "indexed": false,
          "internalType": "uint256",
          "name": "difficultyMultiplier",
          "type": "uint256"
        }
      ],
      "name": "ReputationUpdated",
      "type": "event"
    },
    {
      "inputs": [
        {
          "internalType": "uint256",
          "name": "finalPrice",
          "type": "uint256"
        },
        {
          "internalType": "bool",
          "name": "outcome",
          "type": "bool"
        }
      ],
      "name": "calculateDifficultyMultiplier",
      "outputs": [
        {
          "internalType": "uint256",
          "name": "",
          "type": "uint256"
        }
      ],
      "stateMutability": "pure",
      "type": "function"
    },
    {
      "inputs": [
        {
          "internalType": "address",
          "name": "user",
          "type": "address"
        }
      ],
      "name": "calculateFeeDiscount",
      "outputs": [
        {
          "internalType": "uint256",
          "name": "",
          "type": "uint256"
        }
      ],
      "stateMutability": "view",
      "type": "function"
    },
    {
      "inputs": [
        {
          "internalType": "address",
          "name": "user",
          "type": "address"
        }
      ],
      "name": "calculateVotingWeight",
      "outputs": [
        {
          "internalType": "uint256",
          "name": "",
          "type": "uint256"
        }
      ],
      "stateMutability": "view",
      "type": "function"
    },
    {
      "inputs": [
        {
          "internalType": "address",
          "name": "user",
          "type": "address"
        }
      ],
      "name": "getUserReputation",
      "outputs": [
        {
          "internalType": "uint256",
          "name": "",
          "type": "uint256"
        }
      ],
      "stateMutability": "view",
      "type": "function"
    },
    {
      "inputs": [
        {
          "internalType": "address",
          "name": "user",
          "type": "address"
        }
      ],
      "name": "getUserStats",
      "outputs": [
        {
          "internalType": "uint256",
          "name": "reputation",
          "type": "uint256"
        },
        {
          "internalType": "uint256",
          "name": "predictions",
          "type": "uint256"
        },
        {
          "internalType": "uint256",
          "name": "correct",
          "type": "uint256"
        }
      ],
      "stateMutability": "view",
      "type": "function"
    },
    {
      "inputs": [],
      "name": "owner",
      "outputs": [
        {
          "internalType": "address",
          "name": "",
          "type": "address"
        }
      ],
      "stateMutability": "view",
      "type": "function"
    },
    {
      "inputs": [
        {
          "internalType": "address",
          "name": "market",
          "type": "address"
        },
        {
          "internalType": "address",
          "name": "user",
          "type": "address"
        },
        {
          "internalType": "uint256",
          "name": "stake",
          "type": "uint256"
        },
        {
          "internalType": "bool",
          "name": "isYes",
          "type": "bool"
        },
        {
          "internalType": "uint256",
          "name": "currentPrice",
          "type": "uint256"
        }
      ],
      "name": "recordPosition",
      "outputs": [],
      "stateMutability": "nonpayable",
      "type": "function"
    },
    {
      "inputs": [
        {
          "internalType": "address",
          "name": "factory",
          "type": "address"
        }
      ],
      "name": "removeFactory",
      "outputs": [],
      "stateMutability": "nonpayable",
      "type": "function"
    },
    {
      "inputs": [],
      "name": "renounceOwnership",
      "outputs": [],
      "stateMutability": "nonpayable",
      "type": "function"
    },
    {
      "inputs": [
        {
          "internalType": "address",
          "name": "newOwner",
          "type": "address"
        }
      ],
      "name": "transferOwnership",
      "outputs": [],
      "stateMutability": "nonpayable",
      "type": "function"
    },
    {
      "inputs": [
        {
          "internalType": "address",
          "name": "market",
          "type": "address"
        },
        {
          "internalType": "address",
          "name": "user",
          "type": "address"
        },
        {
          "internalType": "bool",
          "name": "outcome",
          "type": "bool"
        }
      ],
      "name": "updateReputation",
      "outputs": [
        {
          "internalType": "uint256",
          "name": "",
          "type": "uint256"
        }
      ],
      "stateMutability": "nonpayable",
      "type": "function"
    },
    {
      "inputs": [
        {
          "internalType": "address",
          "name": "factory",
          "type": "address"
        }
      ],
      "name": "whitelistFactory",
      "outputs": [],
      "stateMutability": "nonpayable",
      "type": "function"
    },
    {
      "inputs": [
        {
          "internalType": "address",
          "name": "",
          "type": "address"
        }
      ],
      "name": "whitelistedFactories",
      "outputs": [
        {
          "internalType": "bool",
          "name": "",
          "type": "bool"
        }
      ],
      "stateMutability": "view",
      "type": "function"
    }
  ],
  "transactionHash": "0x501fb24259d500f7a7287bc2c9fdee93f5f6c7a7efbd532168c6bfc6d2eaa2b0",
  "args": [
    "0xD38de898Df33FEc5E0e4cCe2a810DB284C0Cd820"
  ],
  "numDeployments": 1,
  "solcInputHash": "d030c3f97a86c2bccb187bfde57580a9",
  "bytecode": "0x608060405234801561000f575f80fd5b50604051610cb1380380610cb183398101604081905261002e916100bf565b806001600160a01b03811661005c57604051631e4fbdf760e01b81525f600482015260240160405180910390fd5b61006581610070565b5050600180556100ec565b5f80546001600160a01b038381166001600160a01b0319831681178455604051919092169283917f8be0079c531659141344cd1fd0a4f28419497f9722a3daafe3b4186f6b6457e09190a35050565b5f602082840312156100cf575f80fd5b81516001600160a01b03811681146100e5575f80fd5b9392505050565b610bb8806100f95f395ff3fe608060405234801561000f575f80fd5b50600436106100cb575f3560e01c806372be833811610088578063bdb1955111610063578063bdb1955114610206578063bdfaca9e14610219578063d21c36361461022c578063f2fde38b1461023f575f80fd5b806372be8338146101b15780638da5cb5b146101c4578063baccbfdb146101de575f80fd5b806330ad0c87146100cf578063317571b2146100e45780634b37c73f1461010a5780634e43603a1461011d5780636f50f2f414610177578063715018a6146101a9575b5f80fd5b6100e26100dd366004610a17565b610252565b005b6100f76100f2366004610a17565b61027d565b6040519081526020015b60405180910390f35b6100e2610118366004610a17565b610323565b61015c61012b366004610a17565b6001600160a01b03165f90815260026020908152604080832054600383528184205460049093529220549192909190565b60408051938452602084019290925290820152606001610101565b610199610185366004610a17565b60066020525f908152604090205460ff1681565b6040519015158152602001610101565b6100e261034b565b6100e26101bf366004610a3f565b61035e565b5f546040516001600160a01b039091168152602001610101565b6100f76101ec366004610a17565b6001600160a01b03165f9081526002602052604090205490565b6100f7610214366004610a17565b610523565b6100f7610227366004610a90565b6105b3565b6100f761023a366004610aba565b610626565b6100e261024d366004610a17565b61091a565b61025a610957565b6001600160a01b03165f908152600660205260409020805460ff19166001179055565b6001600160a01b0381165f908152600260205260408120546102aa670de0b6b3a7640000620f4240610b0e565b81106102ca576102c3670de0b6b3a76400006003610b0e565b9392505050565b6102df670de0b6b3a7640000620f4240610b0e565b670de0b6b3a76400006102f3816003610b0e565b6102fd9190610b25565b6103079083610b0e565b6103119190610b38565b6102c390670de0b6b3a7640000610b57565b61032b610957565b6001600160a01b03165f908152600660205260409020805460ff19169055565b610353610957565b61035c5f610983565b565b335f9081526006602052604090205460ff166103b25760405162461bcd60e51b815260206004820152600e60248201526d139bdd08185d5d1a1bdc9a5e995960921b60448201526064015b60405180910390fd5b6001600160a01b0385165f908152600560205260409020600281015460ff161561041e5760405162461bcd60e51b815260206004820152601760248201527f4d61726b657420616c7265616479207265736f6c76656400000000000000000060448201526064016103a9565b6001600160a01b0385165f90815260038201602052604090208054156104865760405162461bcd60e51b815260206004820152601960248201527f506f736974696f6e20616c7265616479207265636f726465640000000000000060448201526064016103a9565b8481556001808201805486151560ff1991821617909155600283018590556003830180549091169055820180548691905f906104c3908490610b57565b90915550506040805186815285151560208201529081018490526001600160a01b0380881691908916907f5438a1a31b52047e1c5949ed49392b25ce28119324465e32e922b586375478149060600160405180910390a350505050505050565b6001600160a01b0381165f90815260026020526040812054610550670de0b6b3a7640000620f4240610b0e565b811061057557606461056b670de0b6b3a76400006032610b0e565b6102c39190610b38565b61058a670de0b6b3a7640000620f4240610b0e565b606461059f670de0b6b3a76400006032610b0e565b6105a99190610b38565b61056b9083610b0e565b5f8082156105d4576105cd84670de0b6b3a7640000610b25565b90506105d7565b50825b670de0b6b3a7640000806105ec816005610b0e565b6105f69190610b25565b6106009083610b0e565b61060a9190610b38565b61061c90670de0b6b3a7640000610b57565b9150505b92915050565b335f9081526006602052604081205460ff166106755760405162461bcd60e51b815260206004820152600e60248201526d139bdd08185d5d1a1bdc9a5e995960921b60448201526064016103a9565b61067d6109d2565b6001600160a01b0384165f908152600560205260409020600281015460ff16156106dc5760405162461bcd60e51b815260206004820152601060248201526f105b1c9958591e481c995cdbdb1d995960821b60448201526064016103a9565b6001600160a01b0384165f908152600380830160205260409091209081015460ff161561073d5760405162461bcd60e51b815260206004820152600f60248201526e105b1c9958591e4818db185a5b5959608a1b60448201526064016103a9565b80546107795760405162461bcd60e51b815260206004820152600b60248201526a2737903837b9b4ba34b7b760a91b60448201526064016103a9565b60028281018054600160ff19918216811790925591830154845560038301805490921617905581545f906107ad90866105b3565b6001600160a01b0387165f9081526003602052604081208054929350906107d383610b6a565b909155505060018201545f9086151560ff90911615150361090c576001600160a01b0387165f90815260046020526040812080549161081183610b6a565b91905055505f8460010154670de0b6b3a7640000855f01546108339190610b0e565b61083d9190610b38565b9050610851670de0b6b3a764000080610b0e565b8184610866670de0b6b3a76400006064610b0e565b6108709190610b0e565b61087a9190610b0e565b6108849190610b38565b6001600160a01b0389165f908152600260205260408120805492945084916108ac8385610b57565b90915550506001600160a01b0389165f81815260026020908152604091829020548251858152918201529081018690527fc2fd17ad7e9f23b8607f0bd02d7a6cdcccd5a964fa99ce5a066ed34c5b4bb55b9060600160405180910390a250505b93505050506102c360018055565b610922610957565b6001600160a01b03811661094b57604051631e4fbdf760e01b81525f60048201526024016103a9565b61095481610983565b50565b5f546001600160a01b0316331461035c5760405163118cdaa760e01b81523360048201526024016103a9565b5f80546001600160a01b038381166001600160a01b0319831681178455604051919092169283917f8be0079c531659141344cd1fd0a4f28419497f9722a3daafe3b4186f6b6457e09190a35050565b6002600154036109f557604051633ee5aeb560e01b815260040160405180910390fd5b6002600155565b80356001600160a01b0381168114610a12575f80fd5b919050565b5f60208284031215610a27575f80fd5b6102c3826109fc565b80358015158114610a12575f80fd5b5f805f805f60a08688031215610a53575f80fd5b610a5c866109fc565b9450610a6a602087016109fc565b935060408601359250610a7f60608701610a30565b949793965091946080013592915050565b5f8060408385031215610aa1575f80fd5b82359150610ab160208401610a30565b90509250929050565b5f805f60608486031215610acc575f80fd5b610ad5846109fc565b9250610ae3602085016109fc565b9150610af160408501610a30565b90509250925092565b634e487b7160e01b5f52601160045260245ffd5b808202811582820484141761062057610620610afa565b8181038181111561062057610620610afa565b5f82610b5257634e487b7160e01b5f52601260045260245ffd5b500490565b8082018082111561062057610620610afa565b5f60018201610b7b57610b7b610afa565b506001019056fea26469706673582212207359073ff91b823e5b4df13d95df78fce78fda894ab33567a553d7fa66138a8664736f6c63430008140033",
  "devdoc": {
    "details": "Implementation of reputation scoring and difficulty multiplier system",
    "errors": {
      "OwnableInvalidOwner(address)": [
        {
          "details": "The owner is not a valid owner account. (eg. `address(0)`)"
        }
      ],
      "OwnableUnauthorizedAccount(address)": [
        {
          "details": "The caller account is not authorized to perform an operation."
        }
      ],
      "ReentrancyGuardReentrantCall()": [
        {
          "details": "Unauthorized reentrant call."
        }
      ]
    },
    "kind": "dev",
    "methods": {
      "calculateDifficultyMultiplier(uint256,bool)": {
        "details": "Calculate difficulty multiplier based on price deviation"
      },
      "calculateFeeDiscount(address)": {
        "details": "Calculate fee discount based on reputation"
      },
      "calculateVotingWeight(address)": {
        "details": "Calculate voting weight based on reputation"
      },
      "getUserReputation(address)": {
        "details": "Get user's current reputation"
      },
      "getUserStats(address)": {
        "details": "Get user's complete stats"
      },
      "owner()": {
        "details": "Returns the address of the current owner."
      },
      "recordPosition(address,address,uint256,bool,uint256)": {
        "details": "Records a user's position in a market"
      },
      "removeFactory(address)": {
        "details": "Remove a market factory from whitelist"
      },
      "renounceOwnership()": {
        "details": "Leaves the contract without owner. It will not be possible to call `onlyOwner` functions. Can only be called by the current owner. NOTE: Renouncing ownership will leave the contract without an owner, thereby disabling any functionality that is only available to the owner."
      },
      "transferOwnership(address)": {
        "details": "Transfers ownership of the contract to a new account (`newOwner`). Can only be called by the current owner."
      },
      "updateReputation(address,address,bool)": {
        "details": "Updates user reputation after market resolution"
      },
      "whitelistFactory(address)": {
        "details": "Whitelist a market factory contract"
      }
    },
    "title": "ReputationSystem",
    "version": 1
  },
  "userdoc": {
    "kind": "user",
    "methods": {},
    "version": 1
  },
  "storageLayout": {
    "storage": [
      {
        "astId": 8,
        "contract": "contracts/ReputationSystem.sol:ReputationSystem",
        "label": "_owner",
        "offset": 0,
        "slot": "0",
        "type": "t_address"
      },
      {
        "astId": 351,
        "contract": "contracts/ReputationSystem.sol:ReputationSystem",
        "label": "_status",
        "offset": 0,
        "slot": "1",
        "type": "t_uint256"
      },
      {
        "astId": 2661,
        "contract": "contracts/ReputationSystem.sol:ReputationSystem",
        "label": "userReputation",
        "offset": 0,
        "slot": "2",
        "type": "t_mapping(t_address,t_uint256)"
      },
      {
        "astId": 2665,
        "contract": "contracts/ReputationSystem.sol:ReputationSystem",
        "label": "totalPredictions",
        "offset": 0,
        "slot": "3",
        "type": "t_mapping(t_address,t_uint256)"
      },
      {
        "astId": 2669,
        "contract": "contracts/ReputationSystem.sol:ReputationSystem",
        "label": "correctPredictions",
        "offset": 0,
        "slot": "4",
        "type": "t_mapping(t_address,t_uint256)"
      },
      {
        "astId": 2674,
        "contract": "contracts/ReputationSystem.sol:ReputationSystem",
        "label": "marketConsensus",
        "offset": 0,
        "slot": "5",
        "type": "t_mapping(t_address,t_struct(MarketConsensus)2699_storage)"
      },
      {
        "astId": 2678,
        "contract": "contracts/ReputationSystem.sol:ReputationSystem",
        "label": "whitelistedFactories",
        "offset": 0,
        "slot": "6",
        "type": "t_mapping(t_address,t_bool)"
      }
    ],
    "types": {
      "t_address": {
        "encoding": "inplace",
        "label": "address",
        "numberOfBytes": "20"
      },
      "t_bool": {
        "encoding": "inplace",
        "label": "bool",
        "numberOfBytes": "1"
      },
      "t_mapping(t_address,t_bool)": {
        "encoding": "mapping",
        "key": "t_address",
        "label": "mapping(address => bool)",
        "numberOfBytes": "32",
        "value": "t_bool"
      },
      "t_mapping(t_address,t_struct(MarketConsensus)2699_storage)": {
        "encoding": "mapping",
        "key": "t_address",
        "label": "mapping(address => struct ReputationSystem.MarketConsensus)",
        "numberOfBytes": "32",
        "value": "t_struct(MarketConsensus)2699_storage"
      },
      "t_mapping(t_address,t_struct(Position)3366_storage)": {
        "encoding": "mapping",
        "key": "t_address",
        "label": "mapping(address => struct IReputationSystem.Position)",
        "numberOfBytes": "32",
        "value": "t_struct(Position)3366_storage"
      },
      "t_mapping(t_address,t_uint256)": {
        "encoding": "mapping",
        "key": "t_address",
        "label": "mapping(address => uint256)",
        "numberOfBytes": "32",
        "value": "t_uint256"
      },
      "t_struct(MarketConsensus)2699_storage": {
        "encoding": "inplace",
        "label": "struct ReputationSystem.MarketConsensus",
        "members": [
          {
            "astId": 2689,
            "contract": "contracts/ReputationSystem.sol:ReputationSystem",
            "label": "finalPrice",
            "offset": 0,
            "slot": "0",
            "type": "t_uint256"
          },
          {
            "astId": 2691,
            "contract": "contracts/ReputationSystem.sol:ReputationSystem",
            "label": "totalStaked",
            "offset": 0,
            "slot": "1",
            "type": "t_uint256"
          },
          {
            "astId": 2693,
            "contract": "contracts/ReputationSystem.sol:ReputationSystem",
            "label": "resolved",
            "offset": 0,
            "slot": "2",
            "type": "t_bool"
          },
          {
            "astId": 2698,
            "contract": "contracts/ReputationSystem.sol:ReputationSystem",
            "label": "userPositions",
            "offset": 0,
            "slot": "3",
            "type": "t_mapping(t_address,t_struct(Position)3366_storage)"
          }
        ],
        "numberOfBytes": "128"
      },
      "t_struct(Position)3366_storage": {
        "encoding": "inplace",
        "label": "struct IReputationSystem.Position",
        "members": [
          {
            "astId": 3359,
            "contract": "contracts/ReputationSystem.sol:ReputationSystem",
            "label": "stake",
            "offset": 0,
            "slot": "0",
            "type": "t_uint256"
          },
          {
            "astId": 3361,
            "contract": "contracts/ReputationSystem.sol:ReputationSystem",
            "label": "isYes",
            "offset": 0,
            "slot": "1",
            "type": "t_bool"
          },
          {
            "astId": 3363,
            "contract": "contracts/ReputationSystem.sol:ReputationSystem",
            "label": "entryPrice",
            "offset": 0,
            "slot": "2",
            "type": "t_uint256"
          },
          {
            "astId": 3365,
            "contract": "contracts/ReputationSystem.sol:ReputationSystem",
            "label": "claimed",
            "offset": 0,
            "slot": "3",
            "type": "t_bool"
          }
        ],
        "numberOfBytes": "128"
      },
      "t_uint256": {
        "encoding": "inplace",
        "label": "uint256",
        "numberOfBytes": "32"
      }
    }
  }
}